{
  "_format": "hh-sol-artifact-1",
  "contractName": "NFTMint",
  "sourceName": "contracts/NFTMint.sol",
  "abi": [
    {
      "inputs": [
        {
          "internalType": "string",
          "name": "_initBaseURI",
          "type": "string"
        }
      ],
      "stateMutability": "payable",
      "type": "constructor"
    },
    {
      "anonymous": false,
      "inputs": [
        {
          "indexed": true,
          "internalType": "address",
          "name": "owner",
          "type": "address"
        },
        {
          "indexed": true,
          "internalType": "address",
          "name": "approved",
          "type": "address"
        },
        {
          "indexed": true,
          "internalType": "uint256",
          "name": "tokenId",
          "type": "uint256"
        }
      ],
      "name": "Approval",
      "type": "event"
    },
    {
      "anonymous": false,
      "inputs": [
        {
          "indexed": true,
          "internalType": "address",
          "name": "owner",
          "type": "address"
        },
        {
          "indexed": true,
          "internalType": "address",
          "name": "operator",
          "type": "address"
        },
        {
          "indexed": false,
          "internalType": "bool",
          "name": "approved",
          "type": "bool"
        }
      ],
      "name": "ApprovalForAll",
      "type": "event"
    },
    {
      "anonymous": false,
      "inputs": [
        {
          "indexed": true,
          "internalType": "address",
          "name": "previousOwner",
          "type": "address"
        },
        {
          "indexed": true,
          "internalType": "address",
          "name": "newOwner",
          "type": "address"
        }
      ],
      "name": "OwnershipTransferred",
      "type": "event"
    },
    {
      "anonymous": false,
      "inputs": [
        {
          "indexed": true,
          "internalType": "address",
          "name": "from",
          "type": "address"
        },
        {
          "indexed": true,
          "internalType": "address",
          "name": "to",
          "type": "address"
        },
        {
          "indexed": true,
          "internalType": "uint256",
          "name": "tokenId",
          "type": "uint256"
        }
      ],
      "name": "Transfer",
      "type": "event"
    },
    {
      "inputs": [
        {
          "internalType": "address",
          "name": "to",
          "type": "address"
        },
        {
          "internalType": "uint256",
          "name": "tokenId",
          "type": "uint256"
        }
      ],
      "name": "approve",
      "outputs": [],
      "stateMutability": "nonpayable",
      "type": "function"
    },
    {
      "inputs": [
        {
          "internalType": "address",
          "name": "owner",
          "type": "address"
        }
      ],
      "name": "balanceOf",
      "outputs": [
        {
          "internalType": "uint256",
          "name": "",
          "type": "uint256"
        }
      ],
      "stateMutability": "view",
      "type": "function"
    },
    {
      "inputs": [],
      "name": "baseExtension",
      "outputs": [
        {
          "internalType": "string",
          "name": "",
          "type": "string"
        }
      ],
      "stateMutability": "view",
      "type": "function"
    },
    {
      "inputs": [
        {
          "internalType": "uint256",
          "name": "tokenId",
          "type": "uint256"
        }
      ],
      "name": "getApproved",
      "outputs": [
        {
          "internalType": "address",
          "name": "",
          "type": "address"
        }
      ],
      "stateMutability": "view",
      "type": "function"
    },
    {
      "inputs": [
        {
          "internalType": "address",
          "name": "owner",
          "type": "address"
        },
        {
          "internalType": "address",
          "name": "operator",
          "type": "address"
        }
      ],
      "name": "isApprovedForAll",
      "outputs": [
        {
          "internalType": "bool",
          "name": "",
          "type": "bool"
        }
      ],
      "stateMutability": "view",
      "type": "function"
    },
    {
      "inputs": [],
      "name": "isMintEnabled",
      "outputs": [
        {
          "internalType": "bool",
          "name": "",
          "type": "bool"
        }
      ],
      "stateMutability": "view",
      "type": "function"
    },
    {
      "inputs": [],
      "name": "maxMintAmount",
      "outputs": [
        {
          "internalType": "uint256",
          "name": "",
          "type": "uint256"
        }
      ],
      "stateMutability": "view",
      "type": "function"
    },
    {
      "inputs": [],
      "name": "maxSupply",
      "outputs": [
        {
          "internalType": "uint256",
          "name": "",
          "type": "uint256"
        }
      ],
      "stateMutability": "view",
      "type": "function"
    },
    {
      "inputs": [],
      "name": "mintPrice",
      "outputs": [
        {
          "internalType": "uint256",
          "name": "",
          "type": "uint256"
        }
      ],
      "stateMutability": "view",
      "type": "function"
    },
    {
      "inputs": [
        {
          "internalType": "uint256",
          "name": "_mintAmount",
          "type": "uint256"
        }
      ],
      "name": "mintSupply",
      "outputs": [],
      "stateMutability": "payable",
      "type": "function"
    },
    {
      "inputs": [
        {
          "internalType": "address",
          "name": "",
          "type": "address"
        }
      ],
      "name": "mintedWallets",
      "outputs": [
        {
          "internalType": "uint256",
          "name": "",
          "type": "uint256"
        }
      ],
      "stateMutability": "view",
      "type": "function"
    },
    {
      "inputs": [],
      "name": "name",
      "outputs": [
        {
          "internalType": "string",
          "name": "",
          "type": "string"
        }
      ],
      "stateMutability": "view",
      "type": "function"
    },
    {
      "inputs": [],
      "name": "owner",
      "outputs": [
        {
          "internalType": "address",
          "name": "",
          "type": "address"
        }
      ],
      "stateMutability": "view",
      "type": "function"
    },
    {
      "inputs": [
        {
          "internalType": "uint256",
          "name": "tokenId",
          "type": "uint256"
        }
      ],
      "name": "ownerOf",
      "outputs": [
        {
          "internalType": "address",
          "name": "",
          "type": "address"
        }
      ],
      "stateMutability": "view",
      "type": "function"
    },
    {
      "inputs": [
        {
          "internalType": "address",
          "name": "_user",
          "type": "address"
        }
      ],
      "name": "removeWhitelistUser",
      "outputs": [],
      "stateMutability": "nonpayable",
      "type": "function"
    },
    {
      "inputs": [],
      "name": "renounceOwnership",
      "outputs": [],
      "stateMutability": "nonpayable",
      "type": "function"
    },
    {
      "inputs": [
        {
          "internalType": "address",
          "name": "receiver",
          "type": "address"
        },
        {
          "internalType": "uint96",
          "name": "feeNumerator",
          "type": "uint96"
        }
      ],
      "name": "resetDefaultRoyalty",
      "outputs": [],
      "stateMutability": "nonpayable",
      "type": "function"
    },
    {
      "inputs": [
        {
          "internalType": "uint256",
          "name": "tokenId",
          "type": "uint256"
        }
      ],
      "name": "resetTokenRoyalty",
      "outputs": [],
      "stateMutability": "nonpayable",
      "type": "function"
    },
    {
      "inputs": [],
      "name": "revealNFT",
      "outputs": [
        {
          "internalType": "bool",
          "name": "",
          "type": "bool"
        }
      ],
      "stateMutability": "view",
      "type": "function"
    },
    {
      "inputs": [
        {
          "internalType": "uint256",
          "name": "_tokenId",
          "type": "uint256"
        },
        {
          "internalType": "uint256",
          "name": "_salePrice",
          "type": "uint256"
        }
      ],
      "name": "royaltyInfo",
      "outputs": [
        {
          "internalType": "address",
          "name": "",
          "type": "address"
        },
        {
          "internalType": "uint256",
          "name": "",
          "type": "uint256"
        }
      ],
      "stateMutability": "view",
      "type": "function"
    },
    {
      "inputs": [
        {
          "internalType": "address",
          "name": "from",
          "type": "address"
        },
        {
          "internalType": "address",
          "name": "to",
          "type": "address"
        },
        {
          "internalType": "uint256",
          "name": "tokenId",
          "type": "uint256"
        }
      ],
      "name": "safeTransferFrom",
      "outputs": [],
      "stateMutability": "nonpayable",
      "type": "function"
    },
    {
      "inputs": [
        {
          "internalType": "address",
          "name": "from",
          "type": "address"
        },
        {
          "internalType": "address",
          "name": "to",
          "type": "address"
        },
        {
          "internalType": "uint256",
          "name": "tokenId",
          "type": "uint256"
        },
        {
          "internalType": "bytes",
          "name": "data",
          "type": "bytes"
        }
      ],
      "name": "safeTransferFrom",
      "outputs": [],
      "stateMutability": "nonpayable",
      "type": "function"
    },
    {
      "inputs": [
        {
          "internalType": "address",
          "name": "operator",
          "type": "address"
        },
        {
          "internalType": "bool",
          "name": "approved",
          "type": "bool"
        }
      ],
      "name": "setApprovalForAll",
      "outputs": [],
      "stateMutability": "nonpayable",
      "type": "function"
    },
    {
      "inputs": [
        {
          "internalType": "string",
          "name": "_newBaseExtension",
          "type": "string"
        }
      ],
      "name": "setBaseExtension",
      "outputs": [],
      "stateMutability": "nonpayable",
      "type": "function"
    },
    {
      "inputs": [
        {
          "internalType": "string",
          "name": "_newBaseURI",
          "type": "string"
        }
      ],
      "name": "setBaseURI",
      "outputs": [],
      "stateMutability": "nonpayable",
      "type": "function"
    },
    {
      "inputs": [
        {
          "internalType": "string",
          "name": "_contractURI",
          "type": "string"
        }
      ],
      "name": "setContractURI",
      "outputs": [],
      "stateMutability": "nonpayable",
      "type": "function"
    },
    {
      "inputs": [
        {
          "internalType": "uint256",
          "name": "_maxSupply",
          "type": "uint256"
        }
      ],
      "name": "setMaxSupply",
      "outputs": [],
      "stateMutability": "nonpayable",
      "type": "function"
    },
    {
      "inputs": [
        {
          "internalType": "uint256",
          "name": "_newCost",
          "type": "uint256"
        }
      ],
      "name": "setMintCost",
      "outputs": [],
      "stateMutability": "nonpayable",
      "type": "function"
    },
    {
      "inputs": [
        {
          "internalType": "bool",
          "name": "reveal",
          "type": "bool"
        }
      ],
      "name": "setRevealNFT",
      "outputs": [],
      "stateMutability": "nonpayable",
      "type": "function"
    },
    {
      "inputs": [
        {
          "internalType": "uint256",
          "name": "tokenId",
          "type": "uint256"
        },
        {
          "internalType": "address",
          "name": "receiver",
          "type": "address"
        },
        {
          "internalType": "uint96",
          "name": "feeNumerator",
          "type": "uint96"
        }
      ],
      "name": "setTokenRokyalty",
      "outputs": [],
      "stateMutability": "nonpayable",
      "type": "function"
    },
    {
      "inputs": [
        {
          "internalType": "uint256",
          "name": "_newCost",
          "type": "uint256"
        }
      ],
      "name": "setWhiteListCost",
      "outputs": [],
      "stateMutability": "nonpayable",
      "type": "function"
    },
    {
      "inputs": [
        {
          "internalType": "uint256",
          "name": "_newmaxMintAmount",
          "type": "uint256"
        }
      ],
      "name": "setmaxMintAmount",
      "outputs": [],
      "stateMutability": "nonpayable",
      "type": "function"
    },
    {
      "inputs": [
        {
          "internalType": "bytes4",
          "name": "interfaceId",
          "type": "bytes4"
        }
      ],
      "name": "supportsInterface",
      "outputs": [
        {
          "internalType": "bool",
          "name": "",
          "type": "bool"
        }
      ],
      "stateMutability": "view",
      "type": "function"
    },
    {
      "inputs": [],
      "name": "symbol",
      "outputs": [
        {
          "internalType": "string",
          "name": "",
          "type": "string"
        }
      ],
      "stateMutability": "view",
      "type": "function"
    },
    {
      "inputs": [],
      "name": "toggleIsMintEnabled",
      "outputs": [],
      "stateMutability": "nonpayable",
      "type": "function"
    },
    {
      "inputs": [
        {
          "internalType": "uint256",
          "name": "index",
          "type": "uint256"
        }
      ],
      "name": "tokenByIndex",
      "outputs": [
        {
          "internalType": "uint256",
          "name": "",
          "type": "uint256"
        }
      ],
      "stateMutability": "view",
      "type": "function"
    },
    {
      "inputs": [
        {
          "internalType": "address",
          "name": "owner",
          "type": "address"
        },
        {
          "internalType": "uint256",
          "name": "index",
          "type": "uint256"
        }
      ],
      "name": "tokenOfOwnerByIndex",
      "outputs": [
        {
          "internalType": "uint256",
          "name": "",
          "type": "uint256"
        }
      ],
      "stateMutability": "view",
      "type": "function"
    },
    {
      "inputs": [
        {
          "internalType": "uint256",
          "name": "tokenId",
          "type": "uint256"
        }
      ],
      "name": "tokenURI",
      "outputs": [
        {
          "internalType": "string",
          "name": "",
          "type": "string"
        }
      ],
      "stateMutability": "view",
      "type": "function"
    },
    {
      "inputs": [],
      "name": "totalSupply",
      "outputs": [
        {
          "internalType": "uint256",
          "name": "",
          "type": "uint256"
        }
      ],
      "stateMutability": "view",
      "type": "function"
    },
    {
      "inputs": [
        {
          "internalType": "address",
          "name": "from",
          "type": "address"
        },
        {
          "internalType": "address",
          "name": "to",
          "type": "address"
        },
        {
          "internalType": "uint256",
          "name": "tokenId",
          "type": "uint256"
        }
      ],
      "name": "transferFrom",
      "outputs": [],
      "stateMutability": "nonpayable",
      "type": "function"
    },
    {
      "inputs": [
        {
          "internalType": "address",
          "name": "newOwner",
          "type": "address"
        }
      ],
      "name": "transferOwnership",
      "outputs": [],
      "stateMutability": "nonpayable",
      "type": "function"
    },
    {
      "inputs": [
        {
          "internalType": "address",
          "name": "_owner",
          "type": "address"
        }
      ],
      "name": "walletOfOwner",
      "outputs": [
        {
          "internalType": "uint256[]",
          "name": "",
          "type": "uint256[]"
        }
      ],
      "stateMutability": "view",
      "type": "function"
    },
    {
      "inputs": [],
      "name": "whitelistPrice",
      "outputs": [
        {
          "internalType": "uint256",
          "name": "",
          "type": "uint256"
        }
      ],
      "stateMutability": "view",
      "type": "function"
    },
    {
      "inputs": [
        {
          "internalType": "address",
          "name": "_user",
          "type": "address"
        }
      ],
      "name": "whitelistUser",
      "outputs": [],
      "stateMutability": "nonpayable",
      "type": "function"
    },
    {
      "inputs": [
        {
          "internalType": "address",
          "name": "",
          "type": "address"
        }
      ],
      "name": "whitelisted",
      "outputs": [
        {
          "internalType": "bool",
          "name": "",
          "type": "bool"
        }
      ],
      "stateMutability": "view",
      "type": "function"
    },
    {
      "inputs": [],
      "name": "withdraw",
      "outputs": [],
      "stateMutability": "payable",
      "type": "function"
    }
  ],
  "bytecode": "0x608060405267011c37937e080000600f55668e1bc9bf04000060105560016013556040518060400160405280600581526020017f2e6a736f6e000000000000000000000000000000000000000000000000000000815250601690805190602001906200006d92919062000328565b50604051620059e3380380620059e3833981810160405281019062000093919062000575565b6040518060400160405280600e81526020017f554855525554455354204d494e540000000000000000000000000000000000008152506040518060400160405280600981526020017f554855525554455354000000000000000000000000000000000000000000000081525081600090805190602001906200011792919062000328565b5080600190805190602001906200013092919062000328565b50505062000153620001476200017360201b60201c565b6200017b60201b60201c565b60026011819055506200016c816200024160201b60201c565b50620006ae565b600033905090565b6000600c60009054906101000a900473ffffffffffffffffffffffffffffffffffffffff16905081600c60006101000a81548173ffffffffffffffffffffffffffffffffffffffff021916908373ffffffffffffffffffffffffffffffffffffffff1602179055508173ffffffffffffffffffffffffffffffffffffffff168173ffffffffffffffffffffffffffffffffffffffff167f8be0079c531659141344cd1fd0a4f28419497f9722a3daafe3b4186f6b6457e060405160405180910390a35050565b620002516200026d60201b60201c565b80601290805190602001906200026992919062000328565b5050565b6200027d6200017360201b60201c565b73ffffffffffffffffffffffffffffffffffffffff16620002a3620002fe60201b60201c565b73ffffffffffffffffffffffffffffffffffffffff1614620002fc576040517f08c379a0000000000000000000000000000000000000000000000000000000008152600401620002f39062000627565b60405180910390fd5b565b6000600c60009054906101000a900473ffffffffffffffffffffffffffffffffffffffff16905090565b828054620003369062000678565b90600052602060002090601f0160209004810192826200035a5760008555620003a6565b82601f106200037557805160ff1916838001178555620003a6565b82800160010185558215620003a6579182015b82811115620003a557825182559160200191906001019062000388565b5b509050620003b59190620003b9565b5090565b5b80821115620003d4576000816000905550600101620003ba565b5090565b6000604051905090565b600080fd5b600080fd5b600080fd5b600080fd5b6000601f19601f8301169050919050565b7f4e487b7100000000000000000000000000000000000000000000000000000000600052604160045260246000fd5b6200044182620003f6565b810181811067ffffffffffffffff8211171562000463576200046262000407565b5b80604052505050565b600062000478620003d8565b905062000486828262000436565b919050565b600067ffffffffffffffff821115620004a957620004a862000407565b5b620004b482620003f6565b9050602081019050919050565b60005b83811015620004e1578082015181840152602081019050620004c4565b83811115620004f1576000848401525b50505050565b60006200050e62000508846200048b565b6200046c565b9050828152602081018484840111156200052d576200052c620003f1565b5b6200053a848285620004c1565b509392505050565b600082601f8301126200055a5762000559620003ec565b5b81516200056c848260208601620004f7565b91505092915050565b6000602082840312156200058e576200058d620003e2565b5b600082015167ffffffffffffffff811115620005af57620005ae620003e7565b5b620005bd8482850162000542565b91505092915050565b600082825260208201905092915050565b7f4f776e61626c653a2063616c6c6572206973206e6f7420746865206f776e6572600082015250565b60006200060f602083620005c6565b91506200061c82620005d7565b602082019050919050565b60006020820190508181036000830152620006428162000600565b9050919050565b7f4e487b7100000000000000000000000000000000000000000000000000000000600052602260045260246000fd5b600060028204905060018216806200069157607f821691505b60208210811415620006a857620006a762000649565b5b50919050565b61532580620006be6000396000f3fe60806040526004361061027d5760003560e01c8063715018a61161014f578063c4073217116100c1578063d936547e1161007a578063d936547e14610977578063da3ef23f146109b4578063e985e9c5146109dd578063f25098e014610a1a578063f2fde38b14610a43578063fc1a1c3614610a6c5761027d565b8063c40732171461087b578063c668286214610892578063c7e9d141146108bd578063c87b56dd146108e6578063d5abeb0114610923578063d684bd911461094e5761027d565b8063938e3d7b11610113578063938e3d7b1461076f57806395d89b4114610798578063a22cb465146107c3578063ada7c4ed146107ec578063b88d4fde14610829578063c0ed16e1146108525761027d565b8063715018a6146106b25780637f00c7a6146106c95780638545f4ea146106f25780638a616bc01461071b5780638da5cb5b146107445761027d565b806330cc7ae0116101f35780634f6ccce7116101ac5780634f6ccce71461057e57806355f804b3146105bb5780636352211e146105e45780636817c76c146106215780636f8b44b01461064c57806370a08231146106755761027d565b806330cc7ae014610491578063346de50a146104ba5780633ccfd60b146104e557806342842e0e146104ef578063438b6300146105185780634a4c560d146105555761027d565b806318160ddd1161024557806318160ddd1461037b578063239c70ae146103a657806323b872dd146103d157806326364aec146103fa5780632a55205a146104165780632f745c59146104545761027d565b806301ffc9a71461028257806304b4bba9146102bf57806306fdde03146102ea578063081812fc14610315578063095ea7b314610352575b600080fd5b34801561028e57600080fd5b506102a960048036038101906102a4919061386d565b610a97565b6040516102b691906138b5565b60405180910390f35b3480156102cb57600080fd5b506102d4610aa9565b6040516102e191906138b5565b60405180910390f35b3480156102f657600080fd5b506102ff610abc565b60405161030c9190613969565b60405180910390f35b34801561032157600080fd5b5061033c600480360381019061033791906139c1565b610b4e565b6040516103499190613a2f565b60405180910390f35b34801561035e57600080fd5b5061037960048036038101906103749190613a76565b610b94565b005b34801561038757600080fd5b50610390610cac565b60405161039d9190613ac5565b60405180910390f35b3480156103b257600080fd5b506103bb610cb9565b6040516103c89190613ac5565b60405180910390f35b3480156103dd57600080fd5b506103f860048036038101906103f39190613ae0565b610cbf565b005b610414600480360381019061040f91906139c1565b610d1f565b005b34801561042257600080fd5b5061043d60048036038101906104389190613b33565b61101a565b60405161044b929190613b73565b60405180910390f35b34801561046057600080fd5b5061047b60048036038101906104769190613a76565b611205565b6040516104889190613ac5565b60405180910390f35b34801561049d57600080fd5b506104b860048036038101906104b39190613b9c565b6112aa565b005b3480156104c657600080fd5b506104cf61130d565b6040516104dc91906138b5565b60405180910390f35b6104ed611320565b005b3480156104fb57600080fd5b5061051660048036038101906105119190613ae0565b6113bb565b005b34801561052457600080fd5b5061053f600480360381019061053a9190613b9c565b6113db565b60405161054c9190613c87565b60405180910390f35b34801561056157600080fd5b5061057c60048036038101906105779190613b9c565b611489565b005b34801561058a57600080fd5b506105a560048036038101906105a091906139c1565b6114ec565b6040516105b29190613ac5565b60405180910390f35b3480156105c757600080fd5b506105e260048036038101906105dd9190613dde565b61155d565b005b3480156105f057600080fd5b5061060b600480360381019061060691906139c1565b61157f565b6040516106189190613a2f565b60405180910390f35b34801561062d57600080fd5b50610636611606565b6040516106439190613ac5565b60405180910390f35b34801561065857600080fd5b50610673600480360381019061066e91906139c1565b61160c565b005b34801561068157600080fd5b5061069c60048036038101906106979190613b9c565b61161e565b6040516106a99190613ac5565b60405180910390f35b3480156106be57600080fd5b506106c76116d6565b005b3480156106d557600080fd5b506106f060048036038101906106eb91906139c1565b6116ea565b005b3480156106fe57600080fd5b50610719600480360381019061071491906139c1565b6116fc565b005b34801561072757600080fd5b50610742600480360381019061073d91906139c1565b61170e565b005b34801561075057600080fd5b50610759611722565b6040516107669190613a2f565b60405180910390f35b34801561077b57600080fd5b5061079660048036038101906107919190613e87565b61174c565b005b3480156107a457600080fd5b506107ad61176a565b6040516107ba9190613969565b60405180910390f35b3480156107cf57600080fd5b506107ea60048036038101906107e59190613f00565b6117fc565b005b3480156107f857600080fd5b50610813600480360381019061080e9190613b9c565b611812565b6040516108209190613ac5565b60405180910390f35b34801561083557600080fd5b50610850600480360381019061084b9190613fe1565b61182a565b005b34801561085e57600080fd5b5061087960048036038101906108749190614064565b61188c565b005b34801561088757600080fd5b506108906118b1565b005b34801561089e57600080fd5b506108a76118e5565b6040516108b49190613969565b60405180910390f35b3480156108c957600080fd5b506108e460048036038101906108df91906139c1565b611973565b005b3480156108f257600080fd5b5061090d600480360381019061090891906139c1565b611985565b60405161091a9190613969565b60405180910390f35b34801561092f57600080fd5b50610938611aa6565b6040516109459190613ac5565b60405180910390f35b34801561095a57600080fd5b50610975600480360381019061097091906140d5565b611aac565b005b34801561098357600080fd5b5061099e60048036038101906109999190613b9c565b611ac2565b6040516109ab91906138b5565b60405180910390f35b3480156109c057600080fd5b506109db60048036038101906109d69190613dde565b611ae2565b005b3480156109e957600080fd5b50610a0460048036038101906109ff9190614115565b611b04565b604051610a1191906138b5565b60405180910390f35b348015610a2657600080fd5b50610a416004803603810190610a3c9190614155565b611b98565b005b348015610a4f57600080fd5b50610a6a6004803603810190610a659190613b9c565b611bb0565b005b348015610a7857600080fd5b50610a81611c34565b604051610a8e9190613ac5565b60405180910390f35b6000610aa282611c3a565b9050919050565b601460019054906101000a900460ff1681565b606060008054610acb906141d7565b80601f0160208091040260200160405190810160405280929190818152602001828054610af7906141d7565b8015610b445780601f10610b1957610100808354040283529160200191610b44565b820191906000526020600020905b815481529060010190602001808311610b2757829003601f168201915b5050505050905090565b6000610b5982611cb4565b6004600083815260200190815260200160002060009054906101000a900473ffffffffffffffffffffffffffffffffffffffff169050919050565b6000610b9f8261157f565b90508073ffffffffffffffffffffffffffffffffffffffff168373ffffffffffffffffffffffffffffffffffffffff161415610c10576040517f08c379a0000000000000000000000000000000000000000000000000000000008152600401610c079061427b565b60405180910390fd5b8073ffffffffffffffffffffffffffffffffffffffff16610c2f611cff565b73ffffffffffffffffffffffffffffffffffffffff161480610c5e5750610c5d81610c58611cff565b611b04565b5b610c9d576040517f08c379a0000000000000000000000000000000000000000000000000000000008152600401610c949061430d565b60405180910390fd5b610ca78383611d07565b505050565b6000600880549050905090565b60135481565b610cd0610cca611cff565b82611dc0565b610d0f576040517f08c379a0000000000000000000000000000000000000000000000000000000008152600401610d069061439f565b60405180910390fd5b610d1a838383611e55565b505050565b601460009054906101000a900460ff16610d6e576040517f08c379a0000000000000000000000000000000000000000000000000000000008152600401610d659061440b565b60405180910390fd5b610d76610cac565b60115411610db9576040517f08c379a0000000000000000000000000000000000000000000000000000000008152600401610db090614477565b60405180910390fd5b6000610dc3610cac565b9050610dcd611722565b73ffffffffffffffffffffffffffffffffffffffff163373ffffffffffffffffffffffffffffffffffffffff1614610f8a5760135482601760003373ffffffffffffffffffffffffffffffffffffffff1673ffffffffffffffffffffffffffffffffffffffff16815260200190815260200160002054610e4d91906144c6565b10610e8d576040517f08c379a0000000000000000000000000000000000000000000000000000000008152600401610e8490614568565b60405180910390fd5b60011515601860003373ffffffffffffffffffffffffffffffffffffffff1673ffffffffffffffffffffffffffffffffffffffff16815260200190815260200160002060009054906101000a900460ff16151514610f395781600f54610ef39190614588565b3414610f34576040517f08c379a0000000000000000000000000000000000000000000000000000000008152600401610f2b9061462e565b60405180910390fd5b610f89565b81601054610f479190614588565b3414610f88576040517f08c379a0000000000000000000000000000000000000000000000000000000008152600401610f7f9061462e565b60405180910390fd5b5b5b6000600190505b82811161101557601760003373ffffffffffffffffffffffffffffffffffffffff1673ffffffffffffffffffffffffffffffffffffffff1681526020019081526020016000206000815480929190610fe89061464e565b9190505550611002338284610ffd91906144c6565b61214f565b808061100d9061464e565b915050610f91565b505050565b6000806000600b60008681526020019081526020016000206040518060400160405290816000820160009054906101000a900473ffffffffffffffffffffffffffffffffffffffff1673ffffffffffffffffffffffffffffffffffffffff1673ffffffffffffffffffffffffffffffffffffffff1681526020016000820160149054906101000a90046bffffffffffffffffffffffff166bffffffffffffffffffffffff166bffffffffffffffffffffffff16815250509050600073ffffffffffffffffffffffffffffffffffffffff16816000015173ffffffffffffffffffffffffffffffffffffffff1614156111b057600a6040518060400160405290816000820160009054906101000a900473ffffffffffffffffffffffffffffffffffffffff1673ffffffffffffffffffffffffffffffffffffffff1673ffffffffffffffffffffffffffffffffffffffff1681526020016000820160149054906101000a90046bffffffffffffffffffffffff166bffffffffffffffffffffffff166bffffffffffffffffffffffff168152505090505b60006111ba61216d565b6bffffffffffffffffffffffff1682602001516bffffffffffffffffffffffff16866111e69190614588565b6111f091906146c6565b90508160000151819350935050509250929050565b60006112108361161e565b8210611251576040517f08c379a000000000000000000000000000000000000000000000000000000000815260040161124890614769565b60405180910390fd5b600660008473ffffffffffffffffffffffffffffffffffffffff1673ffffffffffffffffffffffffffffffffffffffff168152602001908152602001600020600083815260200190815260200160002054905092915050565b6112b2612177565b6000601860008373ffffffffffffffffffffffffffffffffffffffff1673ffffffffffffffffffffffffffffffffffffffff16815260200190815260200160002060006101000a81548160ff02191690831515021790555050565b601460009054906101000a900460ff1681565b611328612177565b6000471161136b576040517f08c379a0000000000000000000000000000000000000000000000000000000008152600401611362906147d5565b60405180910390fd5b611373611722565b73ffffffffffffffffffffffffffffffffffffffff166108fc479081150290604051600060405180830381858888f193505050501580156113b8573d6000803e3d6000fd5b50565b6113d68383836040518060200160405280600081525061182a565b505050565b606060006113e88361161e565b905060008167ffffffffffffffff81111561140657611405613cb3565b5b6040519080825280602002602001820160405280156114345781602001602082028036833780820191505090505b50905060005b8281101561147e5761144c8582611205565b82828151811061145f5761145e6147f5565b5b60200260200101818152505080806114769061464e565b91505061143a565b508092505050919050565b611491612177565b6001601860008373ffffffffffffffffffffffffffffffffffffffff1673ffffffffffffffffffffffffffffffffffffffff16815260200190815260200160002060006101000a81548160ff02191690831515021790555050565b60006114f6610cac565b8210611537576040517f08c379a000000000000000000000000000000000000000000000000000000000815260040161152e90614896565b60405180910390fd5b6008828154811061154b5761154a6147f5565b5b90600052602060002001549050919050565b611565612177565b806012908051906020019061157b9291906136d8565b5050565b60008061158b836121f5565b9050600073ffffffffffffffffffffffffffffffffffffffff168173ffffffffffffffffffffffffffffffffffffffff1614156115fd576040517f08c379a00000000000000000000000000000000000000000000000000000000081526004016115f490614902565b60405180910390fd5b80915050919050565b600f5481565b611614612177565b8060118190555050565b60008073ffffffffffffffffffffffffffffffffffffffff168273ffffffffffffffffffffffffffffffffffffffff16141561168f576040517f08c379a000000000000000000000000000000000000000000000000000000000815260040161168690614994565b60405180910390fd5b600360008373ffffffffffffffffffffffffffffffffffffffff1673ffffffffffffffffffffffffffffffffffffffff168152602001908152602001600020549050919050565b6116de612177565b6116e86000612232565b565b6116f2612177565b8060138190555050565b611704612177565b80600f8190555050565b611716612177565b61171f816122f8565b50565b6000600c60009054906101000a900473ffffffffffffffffffffffffffffffffffffffff16905090565b611754612177565b81816015919061176592919061375e565b505050565b606060018054611779906141d7565b80601f01602080910402602001604051908101604052809291908181526020018280546117a5906141d7565b80156117f25780601f106117c7576101008083540402835291602001916117f2565b820191906000526020600020905b8154815290600101906020018083116117d557829003601f168201915b5050505050905090565b61180e611807611cff565b8383612357565b5050565b60176020528060005260406000206000915090505481565b61183b611835611cff565b83611dc0565b61187a576040517f08c379a00000000000000000000000000000000000000000000000000000000081526004016118719061439f565b60405180910390fd5b611886848484846124c4565b50505050565b611894612177565b80601460016101000a81548160ff02191690831515021790555050565b6118b9612177565b601460009054906101000a900460ff1615601460006101000a81548160ff021916908315150217905550565b601680546118f2906141d7565b80601f016020809104026020016040519081016040528092919081815260200182805461191e906141d7565b801561196b5780601f106119405761010080835404028352916020019161196b565b820191906000526020600020905b81548152906001019060200180831161194e57829003601f168201915b505050505081565b61197b612177565b8060108190555050565b606061199082612520565b6119cf576040517f08c379a00000000000000000000000000000000000000000000000000000000081526004016119c690614a26565b60405180910390fd5b60006119d9612561565b9050601460019054906101000a900460ff1615611a51576000601280546119ff906141d7565b905011611a1b5760405180602001604052806000815250611a49565b80611a25846125f3565b6016604051602001611a3993929190614b16565b6040516020818303038152906040525b915050611aa1565b600060128054611a60906141d7565b905011611a7c5760405180602001604052806000815250611a9d565b80604051602001611a8d9190614b93565b6040516020818303038152906040525b9150505b919050565b60115481565b611ab4612177565b611abe82826126cb565b5050565b60186020528060005260406000206000915054906101000a900460ff1681565b611aea612177565b8060169080519060200190611b009291906136d8565b5050565b6000600560008473ffffffffffffffffffffffffffffffffffffffff1673ffffffffffffffffffffffffffffffffffffffff16815260200190815260200160002060008373ffffffffffffffffffffffffffffffffffffffff1673ffffffffffffffffffffffffffffffffffffffff16815260200190815260200160002060009054906101000a900460ff16905092915050565b611ba0612177565b611bab838383612861565b505050565b611bb8612177565b600073ffffffffffffffffffffffffffffffffffffffff168173ffffffffffffffffffffffffffffffffffffffff161415611c28576040517f08c379a0000000000000000000000000000000000000000000000000000000008152600401611c1f90614c27565b60405180910390fd5b611c3181612232565b50565b60105481565b60007f2a55205a000000000000000000000000000000000000000000000000000000007bffffffffffffffffffffffffffffffffffffffffffffffffffffffff1916827bffffffffffffffffffffffffffffffffffffffffffffffffffffffff19161480611cad5750611cac82612a09565b5b9050919050565b611cbd81612520565b611cfc576040517f08c379a0000000000000000000000000000000000000000000000000000000008152600401611cf390614902565b60405180910390fd5b50565b600033905090565b816004600083815260200190815260200160002060006101000a81548173ffffffffffffffffffffffffffffffffffffffff021916908373ffffffffffffffffffffffffffffffffffffffff160217905550808273ffffffffffffffffffffffffffffffffffffffff16611d7a8361157f565b73ffffffffffffffffffffffffffffffffffffffff167f8c5be1e5ebec7d5bd14f71427d1e84f3dd0314c0f7b2291e5b200ac8c7c3b92560405160405180910390a45050565b600080611dcc8361157f565b90508073ffffffffffffffffffffffffffffffffffffffff168473ffffffffffffffffffffffffffffffffffffffff161480611e0e5750611e0d8185611b04565b5b80611e4c57508373ffffffffffffffffffffffffffffffffffffffff16611e3484610b4e565b73ffffffffffffffffffffffffffffffffffffffff16145b91505092915050565b8273ffffffffffffffffffffffffffffffffffffffff16611e758261157f565b73ffffffffffffffffffffffffffffffffffffffff1614611ecb576040517f08c379a0000000000000000000000000000000000000000000000000000000008152600401611ec290614cb9565b60405180910390fd5b600073ffffffffffffffffffffffffffffffffffffffff168273ffffffffffffffffffffffffffffffffffffffff161415611f3b576040517f08c379a0000000000000000000000000000000000000000000000000000000008152600401611f3290614d4b565b60405180910390fd5b611f488383836001612a83565b8273ffffffffffffffffffffffffffffffffffffffff16611f688261157f565b73ffffffffffffffffffffffffffffffffffffffff1614611fbe576040517f08c379a0000000000000000000000000000000000000000000000000000000008152600401611fb590614cb9565b60405180910390fd5b6004600082815260200190815260200160002060006101000a81549073ffffffffffffffffffffffffffffffffffffffff02191690556001600360008573ffffffffffffffffffffffffffffffffffffffff1673ffffffffffffffffffffffffffffffffffffffff168152602001908152602001600020600082825403925050819055506001600360008473ffffffffffffffffffffffffffffffffffffffff1673ffffffffffffffffffffffffffffffffffffffff16815260200190815260200160002060008282540192505081905550816002600083815260200190815260200160002060006101000a81548173ffffffffffffffffffffffffffffffffffffffff021916908373ffffffffffffffffffffffffffffffffffffffff160217905550808273ffffffffffffffffffffffffffffffffffffffff168473ffffffffffffffffffffffffffffffffffffffff167fddf252ad1be2c89b69c2b068fc378daa952ba7f163c4a11628f55a4df523b3ef60405160405180910390a461214a8383836001612be3565b505050565b612169828260405180602001604052806000815250612be9565b5050565b6000612710905090565b61217f611cff565b73ffffffffffffffffffffffffffffffffffffffff1661219d611722565b73ffffffffffffffffffffffffffffffffffffffff16146121f3576040517f08c379a00000000000000000000000000000000000000000000000000000000081526004016121ea90614db7565b60405180910390fd5b565b60006002600083815260200190815260200160002060009054906101000a900473ffffffffffffffffffffffffffffffffffffffff169050919050565b6000600c60009054906101000a900473ffffffffffffffffffffffffffffffffffffffff16905081600c60006101000a81548173ffffffffffffffffffffffffffffffffffffffff021916908373ffffffffffffffffffffffffffffffffffffffff1602179055508173ffffffffffffffffffffffffffffffffffffffff168173ffffffffffffffffffffffffffffffffffffffff167f8be0079c531659141344cd1fd0a4f28419497f9722a3daafe3b4186f6b6457e060405160405180910390a35050565b600b6000828152602001908152602001600020600080820160006101000a81549073ffffffffffffffffffffffffffffffffffffffff02191690556000820160146101000a8154906bffffffffffffffffffffffff0219169055505050565b8173ffffffffffffffffffffffffffffffffffffffff168373ffffffffffffffffffffffffffffffffffffffff1614156123c6576040517f08c379a00000000000000000000000000000000000000000000000000000000081526004016123bd90614e23565b60405180910390fd5b80600560008573ffffffffffffffffffffffffffffffffffffffff1673ffffffffffffffffffffffffffffffffffffffff16815260200190815260200160002060008473ffffffffffffffffffffffffffffffffffffffff1673ffffffffffffffffffffffffffffffffffffffff16815260200190815260200160002060006101000a81548160ff0219169083151502179055508173ffffffffffffffffffffffffffffffffffffffff168373ffffffffffffffffffffffffffffffffffffffff167f17307eab39ab6107e8899845ad3d59bd9653f200f220920489ca2b5937696c31836040516124b791906138b5565b60405180910390a3505050565b6124cf848484611e55565b6124db84848484612c44565b61251a576040517f08c379a000000000000000000000000000000000000000000000000000000000815260040161251190614eb5565b60405180910390fd5b50505050565b60008073ffffffffffffffffffffffffffffffffffffffff16612542836121f5565b73ffffffffffffffffffffffffffffffffffffffff1614159050919050565b606060128054612570906141d7565b80601f016020809104026020016040519081016040528092919081815260200182805461259c906141d7565b80156125e95780601f106125be576101008083540402835291602001916125e9565b820191906000526020600020905b8154815290600101906020018083116125cc57829003601f168201915b5050505050905090565b60606000600161260284612dcc565b01905060008167ffffffffffffffff81111561262157612620613cb3565b5b6040519080825280601f01601f1916602001820160405280156126535781602001600182028036833780820191505090505b509050600082602001820190505b6001156126c0578080600190039150507f3031323334353637383961626364656600000000000000000000000000000000600a86061a8153600a85816126aa576126a9614697565b5b04945060008514156126bb576126c0565b612661565b819350505050919050565b6126d361216d565b6bffffffffffffffffffffffff16816bffffffffffffffffffffffff161115612731576040517f08c379a000000000000000000000000000000000000000000000000000000000815260040161272890614f47565b60405180910390fd5b600073ffffffffffffffffffffffffffffffffffffffff168273ffffffffffffffffffffffffffffffffffffffff1614156127a1576040517f08c379a000000000000000000000000000000000000000000000000000000000815260040161279890614fb3565b60405180910390fd5b60405180604001604052808373ffffffffffffffffffffffffffffffffffffffff168152602001826bffffffffffffffffffffffff16815250600a60008201518160000160006101000a81548173ffffffffffffffffffffffffffffffffffffffff021916908373ffffffffffffffffffffffffffffffffffffffff16021790555060208201518160000160146101000a8154816bffffffffffffffffffffffff02191690836bffffffffffffffffffffffff1602179055509050505050565b61286961216d565b6bffffffffffffffffffffffff16816bffffffffffffffffffffffff1611156128c7576040517f08c379a00000000000000000000000000000000000000000000000000000000081526004016128be90614f47565b60405180910390fd5b600073ffffffffffffffffffffffffffffffffffffffff168273ffffffffffffffffffffffffffffffffffffffff161415612937576040517f08c379a000000000000000000000000000000000000000000000000000000000815260040161292e9061501f565b60405180910390fd5b60405180604001604052808373ffffffffffffffffffffffffffffffffffffffff168152602001826bffffffffffffffffffffffff16815250600b600085815260200190815260200160002060008201518160000160006101000a81548173ffffffffffffffffffffffffffffffffffffffff021916908373ffffffffffffffffffffffffffffffffffffffff16021790555060208201518160000160146101000a8154816bffffffffffffffffffffffff02191690836bffffffffffffffffffffffff160217905550905050505050565b60007f780e9d63000000000000000000000000000000000000000000000000000000007bffffffffffffffffffffffffffffffffffffffffffffffffffffffff1916827bffffffffffffffffffffffffffffffffffffffffffffffffffffffff19161480612a7c5750612a7b82612f1f565b5b9050919050565b612a8f84848484613001565b6001811115612ad3576040517f08c379a0000000000000000000000000000000000000000000000000000000008152600401612aca906150b1565b60405180910390fd5b6000829050600073ffffffffffffffffffffffffffffffffffffffff168573ffffffffffffffffffffffffffffffffffffffff161415612b1b57612b1681613127565b612b5a565b8373ffffffffffffffffffffffffffffffffffffffff168573ffffffffffffffffffffffffffffffffffffffff1614612b5957612b588582613170565b5b5b600073ffffffffffffffffffffffffffffffffffffffff168473ffffffffffffffffffffffffffffffffffffffff161415612b9d57612b98816132dd565b612bdc565b8473ffffffffffffffffffffffffffffffffffffffff168473ffffffffffffffffffffffffffffffffffffffff1614612bdb57612bda84826133ae565b5b5b5050505050565b50505050565b612bf3838361342d565b612c006000848484612c44565b612c3f576040517f08c379a0000000000000000000000000000000000000000000000000000000008152600401612c3690614eb5565b60405180910390fd5b505050565b6000612c658473ffffffffffffffffffffffffffffffffffffffff1661364b565b15612dbf578373ffffffffffffffffffffffffffffffffffffffff1663150b7a02612c8e611cff565b8786866040518563ffffffff1660e01b8152600401612cb09493929190615126565b6020604051808303816000875af1925050508015612cec57506040513d601f19601f82011682018060405250810190612ce99190615187565b60015b612d6f573d8060008114612d1c576040519150601f19603f3d011682016040523d82523d6000602084013e612d21565b606091505b50600081511415612d67576040517f08c379a0000000000000000000000000000000000000000000000000000000008152600401612d5e90614eb5565b60405180910390fd5b805181602001fd5b63150b7a0260e01b7bffffffffffffffffffffffffffffffffffffffffffffffffffffffff1916817bffffffffffffffffffffffffffffffffffffffffffffffffffffffff191614915050612dc4565b600190505b949350505050565b600080600090507a184f03e93ff9f4daa797ed6e38ed64bf6a1f0100000000000000008310612e2a577a184f03e93ff9f4daa797ed6e38ed64bf6a1f0100000000000000008381612e2057612e1f614697565b5b0492506040810190505b6d04ee2d6d415b85acef81000000008310612e67576d04ee2d6d415b85acef81000000008381612e5d57612e5c614697565b5b0492506020810190505b662386f26fc100008310612e9657662386f26fc100008381612e8c57612e8b614697565b5b0492506010810190505b6305f5e1008310612ebf576305f5e1008381612eb557612eb4614697565b5b0492506008810190505b6127108310612ee4576127108381612eda57612ed9614697565b5b0492506004810190505b60648310612f075760648381612efd57612efc614697565b5b0492506002810190505b600a8310612f16576001810190505b80915050919050565b60007f80ac58cd000000000000000000000000000000000000000000000000000000007bffffffffffffffffffffffffffffffffffffffffffffffffffffffff1916827bffffffffffffffffffffffffffffffffffffffffffffffffffffffff19161480612fea57507f5b5e139f000000000000000000000000000000000000000000000000000000007bffffffffffffffffffffffffffffffffffffffffffffffffffffffff1916827bffffffffffffffffffffffffffffffffffffffffffffffffffffffff1916145b80612ffa5750612ff98261366e565b5b9050919050565b600181111561312157600073ffffffffffffffffffffffffffffffffffffffff168473ffffffffffffffffffffffffffffffffffffffff16146130955780600360008673ffffffffffffffffffffffffffffffffffffffff1673ffffffffffffffffffffffffffffffffffffffff168152602001908152602001600020600082825461308d91906151b4565b925050819055505b600073ffffffffffffffffffffffffffffffffffffffff168373ffffffffffffffffffffffffffffffffffffffff16146131205780600360008573ffffffffffffffffffffffffffffffffffffffff1673ffffffffffffffffffffffffffffffffffffffff168152602001908152602001600020600082825461311891906144c6565b925050819055505b5b50505050565b6008805490506009600083815260200190815260200160002081905550600881908060018154018082558091505060019003906000526020600020016000909190919091505550565b6000600161317d8461161e565b61318791906151b4565b905060006007600084815260200190815260200160002054905081811461326c576000600660008673ffffffffffffffffffffffffffffffffffffffff1673ffffffffffffffffffffffffffffffffffffffff168152602001908152602001600020600084815260200190815260200160002054905080600660008773ffffffffffffffffffffffffffffffffffffffff1673ffffffffffffffffffffffffffffffffffffffff168152602001908152602001600020600084815260200190815260200160002081905550816007600083815260200190815260200160002081905550505b6007600084815260200190815260200160002060009055600660008573ffffffffffffffffffffffffffffffffffffffff1673ffffffffffffffffffffffffffffffffffffffff16815260200190815260200160002060008381526020019081526020016000206000905550505050565b600060016008805490506132f191906151b4565b9050600060096000848152602001908152602001600020549050600060088381548110613321576133206147f5565b5b906000526020600020015490508060088381548110613343576133426147f5565b5b906000526020600020018190555081600960008381526020019081526020016000208190555060096000858152602001908152602001600020600090556008805480613392576133916151e8565b5b6001900381819060005260206000200160009055905550505050565b60006133b98361161e565b905081600660008573ffffffffffffffffffffffffffffffffffffffff1673ffffffffffffffffffffffffffffffffffffffff168152602001908152602001600020600083815260200190815260200160002081905550806007600084815260200190815260200160002081905550505050565b600073ffffffffffffffffffffffffffffffffffffffff168273ffffffffffffffffffffffffffffffffffffffff16141561349d576040517f08c379a000000000000000000000000000000000000000000000000000000000815260040161349490615263565b60405180910390fd5b6134a681612520565b156134e6576040517f08c379a00000000000000000000000000000000000000000000000000000000081526004016134dd906152cf565b60405180910390fd5b6134f4600083836001612a83565b6134fd81612520565b1561353d576040517f08c379a0000000000000000000000000000000000000000000000000000000008152600401613534906152cf565b60405180910390fd5b6001600360008473ffffffffffffffffffffffffffffffffffffffff1673ffffffffffffffffffffffffffffffffffffffff16815260200190815260200160002060008282540192505081905550816002600083815260200190815260200160002060006101000a81548173ffffffffffffffffffffffffffffffffffffffff021916908373ffffffffffffffffffffffffffffffffffffffff160217905550808273ffffffffffffffffffffffffffffffffffffffff16600073ffffffffffffffffffffffffffffffffffffffff167fddf252ad1be2c89b69c2b068fc378daa952ba7f163c4a11628f55a4df523b3ef60405160405180910390a4613647600083836001612be3565b5050565b6000808273ffffffffffffffffffffffffffffffffffffffff163b119050919050565b60007f01ffc9a7000000000000000000000000000000000000000000000000000000007bffffffffffffffffffffffffffffffffffffffffffffffffffffffff1916827bffffffffffffffffffffffffffffffffffffffffffffffffffffffff1916149050919050565b8280546136e4906141d7565b90600052602060002090601f016020900481019282613706576000855561374d565b82601f1061371f57805160ff191683800117855561374d565b8280016001018555821561374d579182015b8281111561374c578251825591602001919060010190613731565b5b50905061375a91906137e4565b5090565b82805461376a906141d7565b90600052602060002090601f01602090048101928261378c57600085556137d3565b82601f106137a557803560ff19168380011785556137d3565b828001600101855582156137d3579182015b828111156137d25782358255916020019190600101906137b7565b5b5090506137e091906137e4565b5090565b5b808211156137fd5760008160009055506001016137e5565b5090565b6000604051905090565b600080fd5b600080fd5b60007fffffffff0000000000000000000000000000000000000000000000000000000082169050919050565b61384a81613815565b811461385557600080fd5b50565b60008135905061386781613841565b92915050565b6000602082840312156138835761388261380b565b5b600061389184828501613858565b91505092915050565b60008115159050919050565b6138af8161389a565b82525050565b60006020820190506138ca60008301846138a6565b92915050565b600081519050919050565b600082825260208201905092915050565b60005b8381101561390a5780820151818401526020810190506138ef565b83811115613919576000848401525b50505050565b6000601f19601f8301169050919050565b600061393b826138d0565b61394581856138db565b93506139558185602086016138ec565b61395e8161391f565b840191505092915050565b600060208201905081810360008301526139838184613930565b905092915050565b6000819050919050565b61399e8161398b565b81146139a957600080fd5b50565b6000813590506139bb81613995565b92915050565b6000602082840312156139d7576139d661380b565b5b60006139e5848285016139ac565b91505092915050565b600073ffffffffffffffffffffffffffffffffffffffff82169050919050565b6000613a19826139ee565b9050919050565b613a2981613a0e565b82525050565b6000602082019050613a446000830184613a20565b92915050565b613a5381613a0e565b8114613a5e57600080fd5b50565b600081359050613a7081613a4a565b92915050565b60008060408385031215613a8d57613a8c61380b565b5b6000613a9b85828601613a61565b9250506020613aac858286016139ac565b9150509250929050565b613abf8161398b565b82525050565b6000602082019050613ada6000830184613ab6565b92915050565b600080600060608486031215613af957613af861380b565b5b6000613b0786828701613a61565b9350506020613b1886828701613a61565b9250506040613b29868287016139ac565b9150509250925092565b60008060408385031215613b4a57613b4961380b565b5b6000613b58858286016139ac565b9250506020613b69858286016139ac565b9150509250929050565b6000604082019050613b886000830185613a20565b613b956020830184613ab6565b9392505050565b600060208284031215613bb257613bb161380b565b5b6000613bc084828501613a61565b91505092915050565b600081519050919050565b600082825260208201905092915050565b6000819050602082019050919050565b613bfe8161398b565b82525050565b6000613c108383613bf5565b60208301905092915050565b6000602082019050919050565b6000613c3482613bc9565b613c3e8185613bd4565b9350613c4983613be5565b8060005b83811015613c7a578151613c618882613c04565b9750613c6c83613c1c565b925050600181019050613c4d565b5085935050505092915050565b60006020820190508181036000830152613ca18184613c29565b905092915050565b600080fd5b600080fd5b7f4e487b7100000000000000000000000000000000000000000000000000000000600052604160045260246000fd5b613ceb8261391f565b810181811067ffffffffffffffff82111715613d0a57613d09613cb3565b5b80604052505050565b6000613d1d613801565b9050613d298282613ce2565b919050565b600067ffffffffffffffff821115613d4957613d48613cb3565b5b613d528261391f565b9050602081019050919050565b82818337600083830152505050565b6000613d81613d7c84613d2e565b613d13565b905082815260208101848484011115613d9d57613d9c613cae565b5b613da8848285613d5f565b509392505050565b600082601f830112613dc557613dc4613ca9565b5b8135613dd5848260208601613d6e565b91505092915050565b600060208284031215613df457613df361380b565b5b600082013567ffffffffffffffff811115613e1257613e11613810565b5b613e1e84828501613db0565b91505092915050565b600080fd5b600080fd5b60008083601f840112613e4757613e46613ca9565b5b8235905067ffffffffffffffff811115613e6457613e63613e27565b5b602083019150836001820283011115613e8057613e7f613e2c565b5b9250929050565b60008060208385031215613e9e57613e9d61380b565b5b600083013567ffffffffffffffff811115613ebc57613ebb613810565b5b613ec885828601613e31565b92509250509250929050565b613edd8161389a565b8114613ee857600080fd5b50565b600081359050613efa81613ed4565b92915050565b60008060408385031215613f1757613f1661380b565b5b6000613f2585828601613a61565b9250506020613f3685828601613eeb565b9150509250929050565b600067ffffffffffffffff821115613f5b57613f5a613cb3565b5b613f648261391f565b9050602081019050919050565b6000613f84613f7f84613f40565b613d13565b905082815260208101848484011115613fa057613f9f613cae565b5b613fab848285613d5f565b509392505050565b600082601f830112613fc857613fc7613ca9565b5b8135613fd8848260208601613f71565b91505092915050565b60008060008060808587031215613ffb57613ffa61380b565b5b600061400987828801613a61565b945050602061401a87828801613a61565b935050604061402b878288016139ac565b925050606085013567ffffffffffffffff81111561404c5761404b613810565b5b61405887828801613fb3565b91505092959194509250565b60006020828403121561407a5761407961380b565b5b600061408884828501613eeb565b91505092915050565b60006bffffffffffffffffffffffff82169050919050565b6140b281614091565b81146140bd57600080fd5b50565b6000813590506140cf816140a9565b92915050565b600080604083850312156140ec576140eb61380b565b5b60006140fa85828601613a61565b925050602061410b858286016140c0565b9150509250929050565b6000806040838503121561412c5761412b61380b565b5b600061413a85828601613a61565b925050602061414b85828601613a61565b9150509250929050565b60008060006060848603121561416e5761416d61380b565b5b600061417c868287016139ac565b935050602061418d86828701613a61565b925050604061419e868287016140c0565b9150509250925092565b7f4e487b7100000000000000000000000000000000000000000000000000000000600052602260045260246000fd5b600060028204905060018216806141ef57607f821691505b60208210811415614203576142026141a8565b5b50919050565b7f4552433732313a20617070726f76616c20746f2063757272656e74206f776e6560008201527f7200000000000000000000000000000000000000000000000000000000000000602082015250565b60006142656021836138db565b915061427082614209565b604082019050919050565b6000602082019050818103600083015261429481614258565b9050919050565b7f4552433732313a20617070726f76652063616c6c6572206973206e6f7420746f60008201527f6b656e206f776e6572206f7220617070726f76656420666f7220616c6c000000602082015250565b60006142f7603d836138db565b91506143028261429b565b604082019050919050565b60006020820190508181036000830152614326816142ea565b9050919050565b7f4552433732313a2063616c6c6572206973206e6f7420746f6b656e206f776e6560008201527f72206f7220617070726f76656400000000000000000000000000000000000000602082015250565b6000614389602d836138db565b91506143948261432d565b604082019050919050565b600060208201905081810360008301526143b88161437c565b9050919050565b7f4d696e74696e67204e6f7420456e61626c656400000000000000000000000000600082015250565b60006143f56013836138db565b9150614400826143bf565b602082019050919050565b60006020820190508181036000830152614424816143e8565b9050919050565b7f536f6c64204f7574000000000000000000000000000000000000000000000000600082015250565b60006144616008836138db565b915061446c8261442b565b602082019050919050565b6000602082019050818103600083015261449081614454565b9050919050565b7f4e487b7100000000000000000000000000000000000000000000000000000000600052601160045260246000fd5b60006144d18261398b565b91506144dc8361398b565b9250827fffffffffffffffffffffffffffffffffffffffffffffffffffffffffffffffff0382111561451157614510614497565b5b828201905092915050565b7f45786365656473204d6178205065722057616c6c657400000000000000000000600082015250565b60006145526016836138db565b915061455d8261451c565b602082019050919050565b6000602082019050818103600083015261458181614545565b9050919050565b60006145938261398b565b915061459e8361398b565b9250817fffffffffffffffffffffffffffffffffffffffffffffffffffffffffffffffff04831182151516156145d7576145d6614497565b5b828202905092915050565b7f57726f6e672056616c756520456e746572656400000000000000000000000000600082015250565b60006146186013836138db565b9150614623826145e2565b602082019050919050565b600060208201905081810360008301526146478161460b565b9050919050565b60006146598261398b565b91507fffffffffffffffffffffffffffffffffffffffffffffffffffffffffffffffff82141561468c5761468b614497565b5b600182019050919050565b7f4e487b7100000000000000000000000000000000000000000000000000000000600052601260045260246000fd5b60006146d18261398b565b91506146dc8361398b565b9250826146ec576146eb614697565b5b828204905092915050565b7f455243373231456e756d657261626c653a206f776e657220696e646578206f7560008201527f74206f6620626f756e6473000000000000000000000000000000000000000000602082015250565b6000614753602b836138db565b915061475e826146f7565b604082019050919050565b6000602082019050818103600083015261478281614746565b9050919050565b7f42616c616e636520697320300000000000000000000000000000000000000000600082015250565b60006147bf600c836138db565b91506147ca82614789565b602082019050919050565b600060208201905081810360008301526147ee816147b2565b9050919050565b7f4e487b7100000000000000000000000000000000000000000000000000000000600052603260045260246000fd5b7f455243373231456e756d657261626c653a20676c6f62616c20696e646578206f60008201527f7574206f6620626f756e64730000000000000000000000000000000000000000602082015250565b6000614880602c836138db565b915061488b82614824565b604082019050919050565b600060208201905081810360008301526148af81614873565b9050919050565b7f4552433732313a20696e76616c696420746f6b656e2049440000000000000000600082015250565b60006148ec6018836138db565b91506148f7826148b6565b602082019050919050565b6000602082019050818103600083015261491b816148df565b9050919050565b7f4552433732313a2061646472657373207a65726f206973206e6f74206120766160008201527f6c6964206f776e65720000000000000000000000000000000000000000000000602082015250565b600061497e6029836138db565b915061498982614922565b604082019050919050565b600060208201905081810360008301526149ad81614971565b9050919050565b7f4552433732314d657461646174613a2055524920717565727920666f72206e6f60008201527f6e6578697374656e7420746f6b656e0000000000000000000000000000000000602082015250565b6000614a10602f836138db565b9150614a1b826149b4565b604082019050919050565b60006020820190508181036000830152614a3f81614a03565b9050919050565b600081905092915050565b6000614a5c826138d0565b614a668185614a46565b9350614a768185602086016138ec565b80840191505092915050565b60008190508160005260206000209050919050565b60008154614aa4816141d7565b614aae8186614a46565b94506001821660008114614ac95760018114614ada57614b0d565b60ff19831686528186019350614b0d565b614ae385614a82565b60005b83811015614b0557815481890152600182019150602081019050614ae6565b838801955050505b50505092915050565b6000614b228286614a51565b9150614b2e8285614a51565b9150614b3a8284614a97565b9150819050949350505050565b7f68696464656e2e6a736f6e000000000000000000000000000000000000000000600082015250565b6000614b7d600b83614a46565b9150614b8882614b47565b600b82019050919050565b6000614b9f8284614a51565b9150614baa82614b70565b915081905092915050565b7f4f776e61626c653a206e6577206f776e657220697320746865207a65726f206160008201527f6464726573730000000000000000000000000000000000000000000000000000602082015250565b6000614c116026836138db565b9150614c1c82614bb5565b604082019050919050565b60006020820190508181036000830152614c4081614c04565b9050919050565b7f4552433732313a207472616e736665722066726f6d20696e636f72726563742060008201527f6f776e6572000000000000000000000000000000000000000000000000000000602082015250565b6000614ca36025836138db565b9150614cae82614c47565b604082019050919050565b60006020820190508181036000830152614cd281614c96565b9050919050565b7f4552433732313a207472616e7366657220746f20746865207a65726f2061646460008201527f7265737300000000000000000000000000000000000000000000000000000000602082015250565b6000614d356024836138db565b9150614d4082614cd9565b604082019050919050565b60006020820190508181036000830152614d6481614d28565b9050919050565b7f4f776e61626c653a2063616c6c6572206973206e6f7420746865206f776e6572600082015250565b6000614da16020836138db565b9150614dac82614d6b565b602082019050919050565b60006020820190508181036000830152614dd081614d94565b9050919050565b7f4552433732313a20617070726f766520746f2063616c6c657200000000000000600082015250565b6000614e0d6019836138db565b9150614e1882614dd7565b602082019050919050565b60006020820190508181036000830152614e3c81614e00565b9050919050565b7f4552433732313a207472616e7366657220746f206e6f6e20455243373231526560008201527f63656976657220696d706c656d656e7465720000000000000000000000000000602082015250565b6000614e9f6032836138db565b9150614eaa82614e43565b604082019050919050565b60006020820190508181036000830152614ece81614e92565b9050919050565b7f455243323938313a20726f79616c7479206665652077696c6c2065786365656460008201527f2073616c65507269636500000000000000000000000000000000000000000000602082015250565b6000614f31602a836138db565b9150614f3c82614ed5565b604082019050919050565b60006020820190508181036000830152614f6081614f24565b9050919050565b7f455243323938313a20696e76616c696420726563656976657200000000000000600082015250565b6000614f9d6019836138db565b9150614fa882614f67565b602082019050919050565b60006020820190508181036000830152614fcc81614f90565b9050919050565b7f455243323938313a20496e76616c696420706172616d65746572730000000000600082015250565b6000615009601b836138db565b915061501482614fd3565b602082019050919050565b6000602082019050818103600083015261503881614ffc565b9050919050565b7f455243373231456e756d657261626c653a20636f6e736563757469766520747260008201527f616e7366657273206e6f7420737570706f727465640000000000000000000000602082015250565b600061509b6035836138db565b91506150a68261503f565b604082019050919050565b600060208201905081810360008301526150ca8161508e565b9050919050565b600081519050919050565b600082825260208201905092915050565b60006150f8826150d1565b61510281856150dc565b93506151128185602086016138ec565b61511b8161391f565b840191505092915050565b600060808201905061513b6000830187613a20565b6151486020830186613a20565b6151556040830185613ab6565b818103606083015261516781846150ed565b905095945050505050565b60008151905061518181613841565b92915050565b60006020828403121561519d5761519c61380b565b5b60006151ab84828501615172565b91505092915050565b60006151bf8261398b565b91506151ca8361398b565b9250828210156151dd576151dc614497565b5b828203905092915050565b7f4e487b7100000000000000000000000000000000000000000000000000000000600052603160045260246000fd5b7f4552433732313a206d696e7420746f20746865207a65726f2061646472657373600082015250565b600061524d6020836138db565b915061525882615217565b602082019050919050565b6000602082019050818103600083015261527c81615240565b9050919050565b7f4552433732313a20746f6b656e20616c7265616479206d696e74656400000000600082015250565b60006152b9601c836138db565b91506152c482615283565b602082019050919050565b600060208201905081810360008301526152e8816152ac565b905091905056fea264697066735822122056913dd0ac681fc8885f15f1fc12fdeb0bbe581cc59fb9c150930fc4ae550d9e64736f6c634300080a0033",
  "linkReferences": {},
  "deployedLinkReferences": {}
}